:020000040800F2
:10000000506E0020456A0008B9650008BB6500080D
:10001000BD650008BF650008C1650008000000005C
:10002000000000000000000000000000C101000806
:10003000C365000800000000150200080DB30008A9
:100040005F6A00085F6A00085F6A00085F6A00086C
:100050005F6A00085F6A00085F6A00085F6A00085C
:100060005F6A00085F6A00085F6A0008ED660008C2
:100070005F6A00085F6A00085F6A00085F6A00083C
:100080005F6A00085F6A00085F6A00085F6A00082C
:10009000536700085F6A00085F6A00080568000887
:1000A0005F6A00085F6A00085F6A00085F6A00080C
:1000B0005F6A00085F6A00085F6A00085F6A0008FC
:1000C0005F6A00085F6A00085F6A00085F6A0008EC
:1000D0005F6A00085F6A00085F6A00085F6A0008DC
:1000E0005F6A00085F6A00085F6A00085F6A0008CC
:1000F0005F6A00085F6A00085F6A00085F6A0008BC
:100100005F6A00085F6A0008356700085F6A0008D8
:100110005F6A00085F6A0008176700085F6A0008E6
:100120005F6A00085F6A0008BB6700085F6A000832
:100130005F6A00085F6A00085F6A00085F6A00087B
:100140005F6A00085F6A00085F6A00085F6A00086B
:100150005F6A00085F6A0008036600082B660008F3
:100160005F6A00085F6A00085F6A00085F6A00084B
:100170005F6A00085F6A00085F6A0008000000000C
:100180005F6A00085F6A00085F6A00087D66000811
:100190005F6A00085F6A00085F6A00085F6A00081B
:1001A00000000000000000005F6A0008DFF80CD0CB
:1001B00010F0E6FA0048004731650008506E002054
:1001C0002A4B19680868B0E8F04F80F30988BFF33C
:1001D0006F8F4FF0000080F311887047000000001F
:1001E00006480068006880F3088862B661B6BFF30D
:1001F0004F8FBFF36F8F00DF00BF00BF08ED00E03F
:10020000DFF80C00016841F470010160704700BF25
:1002100088ED00E0EFF30980BFF36F8F134B1A688E
:100220001EF0100F08BF20ED108A20E9F04F10607B
:1002300008B44FF0200080F31188BFF34F8FBFF355
:100240006F8F0BF0B5FB4FF0000080F3118808BCF6
:1002500019680868B0E8F04F1EF0100F08BFB0EC46
:10026000108A80F30988BFF36F8F7047E800002081
:10027000EFF30580704700002DE9F043012187B0BE
:10028000480607F088FC0121880607F084FCDFF8A7
:10029000F090484606F072FF684607F057F80024D1
:1002A00001258DF807408DF8085004268DF804606C
:1002B00002278DF802408DF809404FF005088DF8AF
:1002C0000570ADF800808DF80A408DF803508DF868
:1002D00006408DF80B406946484606F062FFADF8CF
:1002E0001440ADF80C40ADF810408DF817408DF873
:1002F0001840ADF80E40ADF812408DF816408DF85C
:10030000195003A806F0C1FFDFF87890484606F0C0
:1003100035FF684607F01AF88DF807408DF8085049
:100320008DF804608DF802408DF809408DF8057055
:10033000ADF800808DF80A408DF803508DF8064026
:100340008DF80B406946484606F02BFFADF8145077
:100350008DF817400E20ADF80C40ADF810408DF828
:1003600016008DF81840ADF80E40ADF812408DF82B
:10037000195003A806F089FF07B0BDE8F08300001C
:1003800000640040006800402DE9F04389B001217D
:10039000022007F000FC0121082007F0FCFB0121EE
:1003A000102007F0F8FB42F20F70334C59250690ED
:1003B000ADF8145005A9204607F036FD012120466E
:1003C00007F0AAFD0024DFF8B490ADF8164044F61B
:1003D0001F66ADF81C400696ADF8145005A94846B6
:1003E00007F022FD60274FF47A70ADF800704FF0EF
:1003F00001080290ADF80C40ADF80280694648460D
:1004000007F0C0FD6946484607F090FD08214846C0
:1004100007F0D3FE0821484607F0C9FE01214846EF
:1004200007F060FD0121484607F076FDADF8164063
:10043000ADF81450124DADF81C40069605A928469B
:1004400007F0F2FCADF80070ADF80C400294ADF886
:1004500002806946284607F095FD0821284607F0E6
:10046000ACFE0121284607F03DFD0021284607F09B
:1004700053FD09B0BDE8F08300100040000C0040BF
:10048000000400402DE9FC5F0121022007F065FB1C
:100490000121082007F061FB0121102007F05DFB1E
:1004A0000121202007F059FB0121402007F055FBD6
:1004B0000121802007F051FB01210F02384607F08F
:1004C0004CFB0121880307F070FB01268DF80460C6
:1004D00000244FF470708DF80640DFF8948200908D
:1004E0008DF8076003258DF805506946404608F0F1
:1004F00067FB4021404608F0C8FB7102404608F007
:10050000C4FB8021404608F0C0FB3946404608F055
:10051000BEFBDFF860B28DF8044000978DF807400D
:100520006946584608F04CFB0821012008F0A0FD60
:100530008DF804608DF8064002278DF8076000975B
:100540008DF8055069468C4808F03AFB02218A482C
:1005500008F09BFB8DF804608DF806404FF40058BE
:100560008DF80760CDF800808DF805506946824807
:1005700008F026FB4146804808F087FB8DF80470A0
:100580008DF80640DFF8F4918DF8074000968DF85D
:1005900005506946484608F013FB4FF4E050DFF879
:1005A000E0A100906946504608F00AFB02220021B3
:1005B000484608F079FB02220C21504608F074FBF3
:1005C00002220B21504608F06FFB02220A215046FE
:1005D00008F06AFB8DF8047080208DF806400090CA
:1005E0008DF807408DF805506946584608F0E8FA3E
:1005F00007221146584608F057FB8DF804704FF457
:1006000084408DF8064000908DF807408DF8055025
:100610006946594808F0D4FA08220921564808F0DA
:1006200043FB08220E21544808F03EFB8DF804706D
:100630008DF80640DFF84C918DF8074000958DF855
:1006400005506946484608F0BBFA08220021484692
:1006500008F02AFB08220121484608F025FB8DF806
:1006600004708DF80640DFF820918DF80740009562
:100670008DF805506946484608F0A2FA0922002183
:10068000484608F011FB09220121484608F00CFBFE
:100690008DF8047028038DF8064000908DF807400F
:1006A0008DF805506946584608F08AFA09220D214E
:1006B000584608F0F9FA09220C21584608F0F4FAD5
:1006C0008DF8047020208DF8064000908DF80740CA
:1006D0008DF805506946584608F072FA0222052145
:1006E000584608F0E1FA8DF804608DF806408DF860
:1006F0000760CDF800808DF8055069461E4808F067
:100700005FFA41461C4808F0C0FA8DF804603C20AE
:100710008DF8064000908DF805508DF80760694609
:10072000504608F04DFA3C21504608F0B0FA4FF41C
:100730007A74204609F08EF90421504608F0A5FA93
:10074000204609F087F90821504608F09EFA204615
:1007500009F080F91021504608F097FA204609F078
:1007600079F92021504608F090FABDE8FC9F00007E
:100770000014024000040240001802400020024021
:10078000001C024000100240000C02402DE9FF4115
:100790000121102007F009FA0121202007F005FAB5
:1007A0000121C80707F0F7F9334D284608F0A2FAEF
:1007B0003248009028150024ADF808000420ADF858
:1007C0000440ADF80A00ADF80640ADF80C406946AB
:1007D000284608F0D4FA01224021284608F0D7FB29
:1007E0000121284608F03CFB254F384608F082FAE4
:1007F0004FF4E136ADF80440ADF808400C25009602
:10080000ADF80640ADF80C40ADF80A5069463846E0
:1008100008F0B5FA01224021384608F0B8FB012261
:100820008021384608F0B3FB0121384608F018FB58
:10083000144F384608F05EFAADF80440ADF80840B1
:100840000096ADF80640ADF80C40ADF80A50694688
:10085000384608F094FA01224021384608F097FB08
:1008600001228021384608F092FB0121384608F029
:10087000F7FABDE8FF81000000100140A0860100EA
:1008800000140140007C00402DE9F04F01218FB0A1
:10089000480507F062F90121880507F05EF9664F07
:1008A000384607F021FF384608F023F80028FAD12F
:1008B000122004904FF000600090604800240290E5
:1008C0004FF003090394CDE90B494FF48066B01053
:1008D0000D94CDE908405A480190CDE90664B50170
:1008E0000A950E9469463846059407F085FF012164
:1008F000384607F0BAFF5048783007F0F5FE4E480A
:10090000783007F0F6FF0028F9D14C484FF0206A04
:10091000DFF830B11230CDF800A0CDE901B04020B1
:10092000FF270390CDE90664CDE904740894CDE96E
:100930000945CDE90B494048B0464E460D946946FD
:1009400078300E9407F058FF3B48183807F0CCFE7B
:100950003948183807F0CDFF0028F9D10497CDF8B1
:1009600000A00394CDE90B46CDE90684B146364894
:100970000D9409940A95464608940E940594DFF860
:10098000B880CDE901B0A8F118085746694640463D
:1009900007F032FF0121404607F067FF2B4807F0C0
:1009A000A3FE2A4807F0A5FF0028FAD1294800979E
:1009B000DFF89CB0CDE901B0CDE905460794089475
:1009C000CDE90945CDE90B4940204FF01E0A0D94B1
:1009D0000E94CDE9030AB8464F4669461B4807F016
:1009E0000BFFDFF8689009F19009484607F07CFE9C
:1009F000484607F07EFF0028FAD1CDF80080CDE907
:100A0000034ACDE90B47CDE9066412480D940994D9
:100A10000A9508940E9405941E38CDE901B06946F4
:100A20004C46484607F0E8FE0121204607F01DFF2E
:100A30000FB0BDE8F08F0000406402405801002074
:100A400004100140041401406902002010600240BB
:100A5000047C0040860300202DE9FE434FF44070E3
:100A600006F034FB3A208DF8000003258DF8015084
:100A700001248DF80340684606F02DFB0122102169
:100A8000444807F067FF47208DF8000006208DF8E6
:100A900001008DF80340684606F01DFB40F2244635
:100AA000012231463C4808F07AFA46208DF80000D1
:100AB0008DF8034005208DF80100684606F00BFB19
:100AC000344FDFF8D88078374146384607F07BFF4F
:100AD00001221021384607F03DFF53208DF8000019
:100AE0008DF801508DF80340684606F0F4FA0122B3
:100AF00031462B4808F053FA0B208DF800008DF892
:100B0000034008258DF80150684606F0E4FA254EAA
:100B10004146304607F057FF01221021304607F0CA
:100B200019FF14208DF800008DF8034002208DF885
:100B30000100684606F0CFFA012202211A4806F0A9
:100B4000D3FD41208DF800008DF8034007208DF87B
:100B50000100684606F0BFFA01221021134806F092
:100B6000C3FD200201908DF80A4000208DF8080096
:100B70008DF8095001A807F055FF17208DF80000E7
:100B80008DF8034004208DF80100684606F0A3FAB2
:100B9000BDE8FE834064024000140140008000284C
:100BA000007C00401060024000640040006800408B
:100BB0000648016841F080710160054800214160EC
:100BC000016841F00101016070470000FCED00E0A8
:100BD000001000E010B504F099FE04F04DFE50B195
:100BE00004F04AFE2223244A24A100F039F8BDE88B
:100BF000104004F041BE00F008FA50B100F005FAD0
:100C000025231D4A1DA100F02BF8BDE8104000F07F
:100C1000FCB902F059F800280AD002F055F8272351
:100C2000154A16A100F01CF8BDE8104002F04CB8BF
:100C300010BD1149143901600020704710B504F04F
:100C400051FE00280BD004F04DFE0B4A42230D321A
:100C50000AA100F005F8BDE8104004F043BE10BD45
:100C60000EB50092CDE901300B4609A20021062005
:100C700000F01AF80EBD0000002801082E2E5C447A
:100C80004D505C6D6C6C6974655C6D706C2E6300AE
:100C900025737C25737C25642072657475726E697A
:100CA0006E672025640A00000FB42DE9F041044668
:100CB000C6B0092C3DD2DFE804F0050505050505A1
:100CC000053C05004FAA68464E990FF0BBFD061E75
:100CD00030DD182140A80FF06EF924208DF80001B6
:100CE00001208DF801018DF802410D208DF81501CC
:100CF0000A208DF81601002540AFE84617E0701B6A
:100D0000122800DB1220C4B21221F81C0FF053F994
:100D100008EB05012246F81C0FF026F9002449468D
:100D2000385D05F038FC641C172CF8DB1235B54231
:100D3000E5DB002046B0BDE8F0015DF814FB50B5DE
:100D400087B0040054D0182168460FF034F92420ED
:100D50008DF8000002208DF8010020686E46000E1C
:100D60008DF803002068000C8DF804002088000A2C
:100D70008DF8050020788DF806006068000E8DF86B
:100D800007006068000C8DF80800A088000A8DF844
:100D9000090020798DF80A00A068000E8DF80B007C
:100DA000A068000C8DF80C002089000A8DF80D0059
:100DB000207A8DF80E00E068000E8DF80F00E068D4
:100DC000000C8DF81000A089000A8DF81100207B1E
:100DD0008DF812000D208DF815000A208DF81600F0
:100DE00000242946305D05F0D6FB641C172CF8DB87
:100DF00007B050BD50B587B00C0006467ED0182114
:100E000068460FF0D8F824208DF8000003208DF8F4
:100E100001008DF802600D208DF815000A208DF874
:100E20001600072E6AD2DFE806F05C5C5C4D5C04BD
:100E30008C002068000E8DF803002068000C8DF8EF
:100E400004006068000E8DF805006068000C8DF8E5
:100E50000600A068000E8DF80700A068000C8DF851
:100E60000800E068000E8DF80900E068000C8DF8BD
:100E70000A002069000E8DF80B002069000C8DF827
:100E80000C006069000E8DF80D006069000C8DF893
:100E90000E00A069000E8DF80F00A069000C8DF8FF
:100EA0001000E069000E8DF81100E069000C8DF86B
:100EB0001200206A000E8DF81300206A000C8DF8D5
:100EC00014004DE0E068000E8DF80F00E068000CA3
:100ED0008DF81000A089000A8DF81100207B8DF894
:100EE00012002068000E8DF803002068000C8DF8B9
:100EF00004002088000A8DF8050000E039E0207821
:100F00008DF806006068000E8DF807006068000C20
:100F10008DF80800A088000A8DF8090020798DF866
:100F20000A00A068000E8DF80B00A068000C8DF878
:100F30000C002089000A8DF80D00207A8DF80E0033
:100F40000EE02068000E8DF803002068000C8DF87C
:100F500004002088000A8DF8050020788DF806002E
:100F600000246E462946305D05F015FB641C172CE5
:100F7000F8DB3DE710B501464822FE480EF0F4FFCD
:100F8000FC48F43800F5A071D0F830214A63D0F85D
:100F900034218A67D0F83801C1F8BC00032802D197
:100FA000012001F0A6FE002010BD10B54822F14935
:100FB0000EF0DAFF002010BDEE4900204C31C1F8E0
:100FC0009001704710B500209FEDEB0AE94C4C34BE
:100FD00004EB8001401C81ED5B0A0928F8DB242129
:100FE000E6480EF0E8FF0020B7EE000A4FF080421E
:100FF00004EB0011401C81ED5B0AC1F84821032875
:10100000F6DB0020C4F8900110BDDA4810B54FF4AB
:10101000A071F4380EF0CFFFD6484FF4CC714C30AD
:101020000EF0C9FFFFF7CEFFBDE810404DF293036D
:101030004822D349D34804F073BCCE484C30406AB0
:101040007047CC484C30806E7047CA484C30D0F85E
:10105000AC007047426201607047C64A4C32516230
:10106000106070474FF47A7290FBF2F2C1494C3134
:10107000C1E90A020A6C002A03D1C34A92FBF0F0CC
:10108000086470474FF47A7290FBF2F2B9494C3120
:10109000C1E91B02D1F88420002A04D1BA4A92FB8C
:1010A000F0F0C1F8840070474FF47A7290FBF2F2CE
:1010B000B0494C31C1E92C02D1F8C820002A04D132
:1010C000B14A92FBF0F0C1F8C8007047A9494C3111
:1010D000C96A01607047A7494C31096F01607047C8
:1010E000A4494C31D1F8B41001607047A1494FF4C4
:1010F0007A724C31C1F8280190FBF2F0C1F82C0152
:1011000070479C494C31086470479A494C31C1F88A
:101110008400704797494C31C1F8C8007047954822
:101120004C30B0F8B800C0F30020704791484C3004
:10113000008EC0F3002070478E484C30B0F8740029
:10114000C0F3002070478B4A00204C32B2F8741074
:10115000C90500D5D06F118EC90503D5916B8142A9
:1011600000D90846B2F8B810C90504D5D2F8C010A5
:10117000814200D90846B2F8FC10C90504D5D2F85E
:101180000411814200D9084670477A4A4C32916670
:1011900050647047774A4C32C2F8AC10C2F88800ED
:1011A00070472DE9F0410C4605461646096800686F
:1011B00000F011FE07466168686800F00CFE074405
:1011C000A168A86800F007FE384430602168E8682C
:1011D00000F001FE07466168286900F0FCFD074445
:1011E000A168686900F0F7FD384470602168A8695B
:1011F00000F0F1FD07466168E86900F0ECFD074486
:10120000A168286A00F0E7FD3844B060BDE8F081CD
:101210003EB50446B0F904000D46C0030090B4F991
:10122000060004F10C03C0030190B4F908006A46FB
:10123000C0030290606A4100208880B201F049FB3F
:101240000098296804F11803A0EB61000090019850
:1012500069686A46A0EB610001900298A968A0EB5A
:1012600061000290606A4100208880B201F031FB89
:10127000206B40F0200020633EBD002803D03D4994
:101280000EC980E80E00704770B50D460446014651
:1012900038480C2206460EF0A0FE40B1354894E8CE
:1012A0000E0080E80E003146D430FFF7B1FF314820
:1012B00000224C300821C0F8BC50A0F5A070C0F846
:1012C0003851BDE87040084600F04CBD2949F4395A
:1012D000C1F83C0170472748F438D0F83C0170470A
:1012E00070B50D46040011D0014622480C22203072
:1012F00006460EF072FE48B11E4894E80E002030FB
:1013000080E80E0031467030FFF782FF1948002256
:101310004C3010218567A0F5A070C0F83451BDE8AD
:101320007040084600F01EBD124900224C3188670B
:10133000A1F5A071C1F834011021084600F012BDDA
:1013400070B50C4C0D46F43C98B1D10702D0016841
:10135000C4F81411910702D54168C4F81811510757
:1013600002D58068C4F81C010249203101F17000E7
:101370000CE00DE098040020000000002C06002086
:10138000AB0F0008750F000840420F00FFF740FF49
:10139000FA48002210218567C4F83451BDE8704036
:1013A000084600F0DFBC70B50D46040011D00146C0
:1013B000F2480C22403806460EF00FFE48B1EF48C6
:1013C00094E80E00403880E80E0031464030FFF7C8
:1013D0001FFFEA48A0F5A0744563C4F83051D0F867
:1013E000E40050B10421C4F80C010022084600F0CA
:1013F000B9FC0120C4F8100170BD4FF4D810F1E71A
:10140000DF49D1F81001012800D000200022C1F8E6
:101410001021704710B520B1D84A403A1CCA80E864
:101420001C00002903D0D648D0F80C01086010BD7C
:1014300010B520B1D14A2C3A1CCA80E81C00002902
:1014400003D0CF48D0F82001086010BD70B5CB4C58
:1014500015460268636F8E0611D4A4F8482081886F
:10146000A4F84A100089A4F84C0043F08000A4F1CD
:101470002C01606701F17000FFF7CAFE0DE0E26524
:10148000426822668068606643F02000606701F071
:101490000300BB49A067C1F83401606F40F4A0703D
:1014A0006067E06FC4E91F50002070BDB34A10B5FB
:1014B000403A036853648088A2F84800AF48026B42
:1014C00042F4E0720263826BC0E90E12A0F14001A7
:1014D000FFF79EFE002010BDA84A002102EB810309
:1014E000D3F83C3140F82130491C0329F6DB704722
:1014F00030B4A249002201EB820450F82230521C81
:10150000C4F83031032AF6DBD1F89021012A0BD040
:10151000002201EB820450F82230521CC4F83C3106
:10152000032AF6DB30BC7047964A014630BC02F114
:101530000C0001F094BA3EB51546904C8A0618D4BA
:10154000FFF7D6FF6846FFF7C7FF009824F88C0F17
:101550000198608089490298A0804C3901F1D4003B
:10156000FFF756FE54F82C0F40F0800044F8B809FD
:1015700015E00268C4F8A0204268C4F8A42080687E
:10158000C4F8A800D4F8B80040F02000C4F8B800AF
:1015900001F003007A49C4F8BC00C1F8380154F8DE
:1015A000C00F64E80250206840F4A0702060002062
:1015B0003EBD724A42F8E40F906940F4E0709061D9
:1015C000106AC2E908100020704770B56D4B71C8F1
:1015D0002C3B01F4007183E871006848C0F82421B5
:1015E000D0F8202142F4E0720A43C0F82021002004
:1015F00070BD624900204867704760490020C1F80B
:10160000B80070475D490020C1F8200170475B4970
:1016100000200863704759490020C1F8FC0070475A
:101620002DE9F047DFF858818446914600200246B4
:10163000D8F800400DE002EB420308EB83035D683D
:10164000654502D09B688B4202D10520BDE8F0873A
:10165000521C9442EFDC132C28DC00220CB917E05A
:10166000521C944206DD02EB420308EB83039B68A5
:101670008B42F5DB944209D10AE004EB440308EB0A
:101680008303083B641EE0CB83E8E0009442F4DC73
:1016900002EB420208EB8202C2F804C0C2E902195E
:1016A000D8F80010491CC8F80010CFE7364A37A117
:1016B0000620FFF7F9FA0620C8E730B5304A0021C6
:1016C000136819E001EB410402EB8404646884426E
:1016D00011D11068491C88420ADD01EB410002EB80
:1016E0008000001D90E838000C3880E83800F0E7F2
:1016F000401E106002E0491C8B42E3DC002030BD3C
:101700001E490A6B530602D542F0100008634A6F67
:10171000530602D542F010024A67D1F8B8205306AA
:1017200003D542F01002C1F8B820D1F8FC205306CE
:1017300003D542F01002C1F8FC20D1F82021530655
:1017400003D542F01002C1F8202151F8300F20F0EB
:10175000400041F8740B51F8300C20F0400041F883
:10176000300C486920F040004861886D20F040004E
:101770008865C86F20F04000C8677047E404002007
:10178000A403002020060020D84301084D504C003F
:101790002DE9F0418548002490F83010490600D525
:1017A000022490F87410490601D544F0010490F821
:1017B000B810490601D544F0040490F8FC1049061D
:1017C00001D544F0080490F82001400601D544F00A
:1017D000100400263546764F0DE005EB450007EB7B
:1017E0008000C168214205D041687048884708B12F
:1017F00006B906466D1C3868A842EEDCFFF780FF8C
:10180000304603E530B520B1684B5C3338CB80E817
:10181000380066480AB1C36F1360002902D090F8FF
:101820007800087030BD614B30B5183338CB80E894
:1018300038005E480AB1836B1360002902D090F82B
:101840003400087030BD594B30B50C3338CB80E8CC
:10185000380056480AB1836B1360002902D090F813
:101860003400087030BD514918310EC980E80E00AF
:1018700083E74E4B30B5A03338CB80E838004B4877
:1018800012B1D0F8C0301360002908D0484AD2F80D
:101890003C210AB1002001E090F8BC00087030BD86
:1018A000424B10B5D3F8E440046012B1D3F8040100
:1018B0001060002902D0D3F80001086010BD3B4839
:1018C000406B5AE73A48D0F83C0108B1002054E791
:1018D0003648D0F8BC0050E73448806F4DE73349B4
:1018E00009680160002048E73049496C0160002028
:1018F00043E72E4A002102EB8103D3F8483140F838
:101900002130491C0929F6DB37E710B5274CDFEDFC
:10191000290A002104EB810250F82130C2F8483135
:1019200050F82130491C00EE103A0929B8EEC00ADF
:1019300020EE200A82ED5B0AECDB10BD1B4A002181
:1019400002EB810393ED5B0A00EB8103491C83EDFD
:10195000000A0929F4DB10E710B5144C9FED160AB4
:10196000002100EB810304EB8102D3ED000A491C46
:10197000C2ED5B0AD3ED000A092960EE800AFDEE94
:10198000E00AC2ED520AECDB10BD084A002102EB6E
:101990008103D3F8303140F82130491C0329F6DBAC
:1019A000EBE602490120C1F89001E6E6E4040020DC
:1019B000A4030020000080300000804E10B5FFF727
:1019C00021FFDC48007E400601D5012010BD00202B
:1019D00010BD10B5FFF727FFD648007D400601D5A2
:1019E000012010BD002010BD10B5FFF742FFD14807
:1019F000007F400601D5012010BD002010BDF0B5CC
:101A0000CC4B93E8F00080E8F000187C0870586A2E
:101A10001060186AF0BD2DE9F047C64C8046894633
:101A200020689246014600F09DFA0746E16820686A
:101A300000F098FA0646D4E9010100F093FA054651
:101A4000A068014600F08EFA3844A0F1804000EE14
:101A5000100AA91BF8EEC00A00EE101AB8EEC00A70
:101A60000FF07AFDDFEDB40A60EE200A9FEDB31AA5
:101A700080EE810AB5EEC00AF1EE10FA03D2DFED76
:101A8000B00A30EE200ADFEDAF0A20EE200ABDEEEC
:101A9000C00A88ED000A207C89F80000616ACAF853
:101AA0000010206ABDE8F0872DE9F74FDFF8849237
:101AB00005462DED068B84B04C46D9F80000014652
:101AC00000F050FA0646D4E9000100F04BFA01900C
:101AD000A168206800F046FA0390E168206800F0F1
:101AE00041FA80466068014600F03CFAD4E9010101
:101AF00000F038FA0746E168606800F033FA834680
:101B0000A068014600F02EFA8246D4E9020100F0F6
:101B100029FA0090E068014600F024FA0AEB060476
:101B2000A4F1804400EE104AA7EB08070290F8EEFB
:101B3000C00A00EE107AB8EEC00A0FF00DFDDFED1E
:101B40007E8A20EE280ADFED800ADDE9000180EEC2
:101B5000209A00EE107A00EE904A00EB0108B8EEF1
:101B6000C00AB8EEE01A00EE904A20EE000AF8EE45
:101B7000E00A01EE200A0FF0CEFFF0EE400A00EE80
:101B8000108AB8EEC00A0FF0E7FC20EE280A9FED9D
:101B90006BAA029980EE0A8A8819DFED6C9AB0F17F
:101BA000804009D5B5EEC08AF1EE10FA02DB38EEBE
:101BB000C88A01E039EEC88A0399ABEB010100EE57
:101BC000101AF8EEC00A00EE100AB8EEC00A0FF0C4
:101BD000C3FC20EE280AC0EE0A0A9FED5D0A5D49AB
:101BE00030EEC00A10EE100A884201DB38EEC00A5F
:101BF000594910EE100A884201D939EEC00ADFEDCA
:101C0000510A28EE201A20EE200ABDEEC11ABDEEC0
:101C1000C00A85ED001A85ED010A29EE200ABDEE05
:101C2000C00A85ED020A0B9A99F8101011700C99F0
:101C3000D9F824200A60D9F8200004B0BDEC068B46
:101C4000BDE8FE8F70B50D4601461446394800F0D8
:101C5000D6FB3848017C2970416A2160006A70BD5A
:101C60002DE9F041334A044624324FF47A75A2F14B
:101C70001401304800F0E9FF2E49206B4861636F82
:101C80008B61D4F8B820CA61C70501D5E56A002682
:101C9000DF0504D5276FAF4201DA3D460126D7059F
:101CA00005D5D4F8B470AF4201DA3D460226D4F827
:101CB00020715FEAC75C04D5D4F82CC1AC4500DACA
:101CC0000326012E08D0022E0ED0032E12D0C0F310
:101CD00080100862A06B03E0C3F380100862E06F1D
:101CE00048620020BDE8F081C2F380100862D4F899
:101CF000C000F5E7C7F380100862D4F82401EFE7CD
:101D000007224FF461711548FFF78ABC10B52821EE
:101D100008480EF050F9BDE81040114803F0D4BD5A
:101D200010B50E48FFF7C9FCBDE810400C4803F0A1
:101D3000AABD00007C06002000003443DB0F4940B0
:101D40000000B44300008047DB0F49C0000034C3EB
:101D50000000B4420000B4420000B4C2611C00089C
:101D6000011D0008002A04D1064B1A688A43024369
:101D70001A607047034A0100106801D00021116009
:101D80007047000000000020DFEDFE0A20EE200A70
:101D9000DFEDFD0AFD4980EE201ABCEEC10A10EE0F
:101DA000100AC0B201EB800090ED000A7047DFED31
:101DB000F50A20EE200ADFEDF40AF44980EE201A3D
:101DC000BCEEC10A10EE100A4030C0B201EB800038
:101DD00090ED000A704780FB0101800F40EA81000E
:101DE000704730B50B46044609680068FFF7F3FFFB
:101DF000054659686068FFF7EEFF2D1A9968A068DC
:101E0000FFF7E9FF2D1AD968E068FFF7E4FF281A09
:101E1000106059682068FFF7DEFF054619686068A2
:101E2000FFF7D9FF0544D968A068FFF7D4FF054440
:101E30009968E068FFF7CFFF281A5060996820681A
:101E4000FFF7C9FF0546D9686068FFF7C4FF2D1A80
:101E50001968A068FFF7BFFF05445968E068FFF7FD
:101E6000BAFF28449060D9682068FFF7B4FF0546A0
:101E700099686068FFF7AFFF05445968A068FFF7ED
:101E8000AAFF2D1A1968E068FFF7A5FF2844D06063
:101E900030BD02680A60426852424A60826852421B
:101EA0008A60C0684042C860704730B591B004464F
:101EB000002000900B46154689686068FFF78BFF8D
:101EC00002465968A068FFF786FF101A019019684A
:101ED000A068FFF780FF024699682068FFF77BFF44
:101EE000101A029059682068FFF775FF02461968BA
:101EF0006068FFF770FF101A039008AA6946284629
:101F0000FFF76FFF0CA92846FFF7C3FF04AA0CA92F
:101F100008A8FFF766FF069808B9059898B19DEDE7
:101F2000050AB8EEC00A9FED9A1A60EE010A9DED0F
:101F3000060AB8EEC00A20EE010A0FF00DFBB1EE62
:101F4000400A11B030BD9FED930AFAE70346002026
:101F5000014653F82120491C521302FB02000329B9
:101F6000F7DB704780FB0101400F40EAC10070477A
:101F70000A46C117890710B541EA90018007D317B7
:101F80000DF0A0FF10BD80FB010110B50DF0DAFFD0
:101F900010BD10B503680C682344136043684C6897
:101FA0002344536083688C6823449360C068C96885
:101FB0000844D06010BD70B50E462DED068B04466A
:101FC0009FED75AB0025B0EE4A8AF0EE6A8A18E004
:101FD00054F8250000F05CFDB0EE409AF0EE609AF7
:101FE00054F8250000F054FD53EC192B51EC100B64
:101FF0000EF0B0F853EC182B0EF005F841EC180B6E
:102000006D1CB542E4DB53EC1A2B51EC180B0EF0AF
:102010002FFA23D2B0EE480AF0EE680A0FF03EFD28
:1020200053EC102B9FED5E0B51EC100B0EF004F9EE
:1020300041EC180B00250CE054F825000EF08FF948
:1020400053EC182B0EF086F80EF0C7F944F8250073
:102050006D1CB542F0DBBDEC068B70BD4FF08040CF
:1020600020600120002102E044F82010401CB04212
:10207000FADBF0E704219EE710B52DED068B9FED0E
:10208000489B9FED49AB00680EF069F99FED481B36
:1020900053EC112B0EF05EF841EC180B53EC192B9E
:1020A0000EF0E6F904D2B0EE498AF0EE698A0AE051
:1020B00053EC1A2B51EC180B0EF0C2F903D2B0EE10
:1020C0004A8AF0EE6A8AB0EE480AF0EE680A0EF02C
:1020D000F7FB9FED391B51EC100B53EC112B0EF05D
:1020E00039F89FED371B53EC112B0EF033F89FEDB1
:1020F000361B53EC112B0EF09FF8BDEC068B41EC18
:10210000100B10BD70B590B006460020009091E80D
:1021100029000DF1040C14468CE8290008AA694630
:102120003046FFF75EFE0CA93046FFF7B2FE04AA68
:102130000CA908A8FFF755FE05AB93E8070084E853
:10214000070010B070BD90ED000AD1ED000A91EDCE
:10215000011A20EE200AD0ED010A00EEC10AD0EDEE
:10216000020A91ED021A00EEC10AD0ED030A91EDC8
:10217000031A00EEC10A82ED000A90ED000AD1EDCB
:10218000010A25E000000043D00F49401C28010847
:10219000000080300000000000000000000000008F
:1021A000000000000000F03F000000000000F0BF51
:1021B000000000000000103E000000000000004091
:1021C0000000000000806640112D4454FB210940AE
:1021D00020EE200AD0ED010A91ED001A00EE810AEE
:1021E000D0ED020A91ED031A00EE810AD0ED030A48
:1021F00091ED021A00EEC10A82ED010A90ED000A8B
:10220000D1ED020A91ED031A20EE200AD0ED010A69
:1022100000EEC10AD0ED020A91ED001A00EE810A2B
:10222000D0ED030A91ED011A00EE810A82ED020A57
:1022300090ED000AD1ED030A91ED021A20EE200A7A
:10224000D0ED010A00EE810AD0ED020A91ED011AEB
:1022500000EEC10AD0ED030A91ED001A00EE810AEA
:1022600082ED030A704790ED000AD1ED000A30EECE
:10227000200A82ED000A90ED010AD1ED010A30EE4C
:10228000200A82ED010A90ED020AD1ED020A30EE39
:10229000200A82ED020A90ED030AD1ED030A30EE26
:1022A000200A82ED030A70475FED460A90ED001A9E
:1022B00090ED012AD0ED021A21EE010AD0ED032A99
:1022C00002EE020A01EEA10A02EEA20A10EE101AB4
:1022D000B1F1804F34DAF6EE000AB7EE083A60EE5C
:1022E000200AF0EE433A20EE804A44EE403A23EED4
:1022F000800AF0EE433A20EE804A44EE403A23EE64
:10230000800AF0EE433A20EE804A44EE403A23EE53
:10231000800A60EE800A00EEC03A23EE000A61EE09
:10232000000AC0ED000A62EE000AC0ED010A61EE8B
:10233000800A22EE800AC0ED020A80ED030A70478F
:10234000B7EE000A80EC020AC0ED020AC0ED030AF3
:10235000704710B590ED000AD0ED010A044620EE5A
:10236000000A00EEA00AD0ED020A00EEA00AD0EDAD
:10237000030A00EEA00A0FF0CEFBB5EEC00AF1EEA4
:1023800010FA18D0D4ED000A80EE801A84ED001AFD
:10239000D4ED010A80EE801A84ED011AD4ED020A10
:1023A00080EE801A84ED021AD4ED030A80EE801AC2
:1023B00084ED031A10BDB7EE000A84ED000A1FED8C
:1023C0008B0A84ED010A84ED020A84ED030A10BD34
:1023D00090ED000A81ED000A90ED010AB1EE400A8D
:1023E00081ED010A90ED020AB1EE400A81ED020A88
:1023F00090ED030AB1EE400A81ED030A704710B573
:10240000024640680B460146FFF7ACFD04461068E3
:102410000146FFF7A7FD2044A0F180401860D2E9F3
:102420000101FFF79FFD04461168D068FFF79AFD90
:10243000201A5860D1685068FFF794FD044611686F
:102440009068FFF78FFD20449860D2E90101FFF703
:1024500089FD04461168D068FFF784FD2044D860E8
:1024600090680146FFF77EFD044610680146FFF7BD
:1024700079FD2044A0F180401861D2E90201FFF704
:1024800071FD0446D2E90010FFF76CFD201A586177
:10249000D1685068FFF766FD044611689068FFF741
:1024A00061FD201A9861D2E90201FFF75BFD044645
:1024B000D2E90010FFF756FD2044D861D0680146EC
:1024C000FFF750FD044610680146FFF74BFD20441E
:1024D000A0F18040186210BD10B544680C6083689C
:1024E0004B60C2688A600068002805DA60420860B4
:1024F000584248605042886010BD020E0A70020CBB
:102500004A70020A8A70C870084670470168C0782D
:1025100009BA21F0FF0108437047008840BA00B2B1
:102520007047008800B27047020A0A704870084677
:1025300070472DE9F043002489462646DDF81CC08B
:1025400020E0002106EB46070D4609EBC70713E024
:102550009C4200D1641C614500D1491C04EB440835
:1025600000EBC80808EB8108491C98ED000A07EB4E
:1025700085086D1C88ED000AD2F800808845E7DCEC
:10258000641C761C1168A142DBDC481E1060BDE8AB
:10259000F0832DE9F043002489462646DDF81CC06F
:1025A00020E0002106EB46070D4609EB071713E074
:1025B0009C4200D1641C614500D1491C04EB4408D5
:1025C00000EB081808EBC108491C98ED000B07EB5D
:1025D000C5086D1C88ED000BD2F800808845E7DC4B
:1025E000641C761C1168A142DBDC481E1060CEE73B
:1025F0002DE9F04788462DED028BA5B00E689FEDC2
:10260000FC8A0546022E08D0002707EB47003C460F
:1026100005EBC0094FF0FF3A30E095ED000AD5ED2B
:10262000070A95ED061A20EE200AD5ED010A00EE04
:10263000C10A25B0BDEC028BBDE8F087C8F8006088
:102640003B46424601A928460094FFF772FF4146E7
:1026500001A8FFF7CDFF09EB840090ED001A3819AF
:10266000C00701D0504600E0012000EE900A641C33
:10267000F8EEE00A61EE200A00EE808AB442DDDB6B
:10268000B0EE480AD5E72DE9F04188462DED048BE0
:10269000CAB005469FEDD78B0E68022E02D00027E8
:1026A0003C4655E095ED0C1B95ED020B53EC112BC0
:1026B00051EC100B0DF04EFD95ED0E1B95ED000B42
:1026C00041EC180B53EC112B51EC100B0DF042FDAB
:1026D00053EC182B0DF038FD41EC100B4AB0BDEC5B
:1026E000048BBDE8F081C8F800603B46424602A971
:1026F00028460094FFF74DFF414602A8FFF7C3FFAD
:102700003819B0EE409AF0EE609AC00702D04FF050
:10271000FF3000E001200DF022FE41EC110B07EB31
:10272000470005EB001000EBC40090ED000B51ECEE
:10273000110B53EC102B0DF00DFD53EC192B0DF07C
:1027400009FD53EC182B0DF05EFC41EC180B641CDA
:10275000B442C8DBB0EE480AF0EE680ABEE710EEFD
:10276000100AA649DFEDA60A884202DB30EE600AB5
:10277000704710EE100AA3498842F9D330EE200AC0
:10278000704700B5F0EE601AFFF7E9FFB0EE401AAF
:10279000B0EE610AFFF7E3FF31EE400A974910EE11
:1027A000100ADFED970A884202DB30EE600A00BDB6
:1027B00010EE100A93498842F9D930EE200A00BD84
:1027C00010B5044641F20550002204E0A35C00EB82
:1027D00040101844521C8A42F8DB10BD90F90010DA
:1027E000002902DD4FF00000704702DA4FF00400CC
:1027F000704790F90110002902DD4FF00100704789
:1028000002DA4FF00500704790F90200002802DD5F
:102810004FF00200704702DA4FF0060070474FF0A9
:102820000700704770B50446FFF7D8FF0546E01C67
:10283000FFF7D4FF45EAC005A01DFFF7CFFF45EA2B
:10284000801080B270BD30B500F00303440751F82A
:1028500023504FF0FF3301D51C4600E001246543AF
:10286000C0F3C104156051F82450840601D51C46FC
:1028700000E001246543C0F38114556051F8241031
:10288000C00500D401235943916030BD30B50D68B7
:1028900044074FF0FF3301D51C4600E00124654397
:1028A00000F0030442F824504D68840601D51C460C
:1028B00000E001246543C0F3C10442F82450896854
:1028C000C40500D40123C0F38110594342F82010FD
:1028D00030BDF0B5044600F003000E4652F82070FB
:1028E00060074FF0FF3501D5284600E0012078430E
:1028F000FFF771FA1860C4F3C10052F82070A00607
:1029000001D5284600E0012078433146FFF763FAFD
:102910005860C4F38110E10552F8200000D401256D
:1029200068433146FFF757FA9860F0BD10B590ED57
:10293000000A60EE000A90ED010A40EE000A90EDF8
:10294000020A40EE000A10EE900A0DF065FDBDE8A7
:10295000104041EC100B0FF0A1B89FED250A0022AA
:1029600080ED000A80ED010A01EB820393ED000A7D
:1029700000EB8203521C83ED040A052AF4DB704746
:1029800080ED090A80ED0A0AD0ED060AB7EE001ABA
:1029900070EE810A90ED071A30EE811AC0EE010A3E
:1029A000C0ED000AC0ED010A704780ED090A90ED04
:1029B000061AD0ED000AD0ED071A90ED042A01EEB8
:1029C000600A90ED011A01EEC10AF0EE401A42EEE3
:1029D000201A90ED052A42EE011A90ED081A21EE18
:1029E000811A80ED0A1A80EC020AB0EE410A7047A3
:1029F000000000000000000000000000DB0F494064
:102A0000DB0FC940DB0F49C091ED010AD2ED020A8C
:102A100092ED011A20EE200AD1ED020A00EEC10A61
:102A200080ED000A91ED020AD2ED000A92ED021A41
:102A300020EE200AD1ED000A00EEC10A80ED010A65
:102A400091ED000AD2ED010A92ED001A20EE200A63
:102A5000D1ED010A00EEC10A80ED020AC7E7F0B528
:102A60000E460746002400252B4603EB4300204476
:102A700056F8231057F82000FFF7ADF95B1C05440A
:102A8000032BF2DB42F82450641C032CEBDBF0BD7B
:102A900010B50DF064FC9FED041B53EC112B0DF0F1
:102AA00059FB41EC100B10BD000000000000103E6F
:102AB00030B5E54A52F87C3F43F0020342F85839FA
:102AC00039C842F8141982E8390030BD30B5DE4A01
:102AD00052F87C3F43F0010342F85C3939C842F8B0
:102AE000201B82E8390030BD70B5D74A02F140039F
:102AF00078CB80E87800106A086070BDD248406FDB
:102B00007047D14948677047CF48006D7047CE493C
:102B100008657047CC498A6E026091F8640070477E
:102B2000C949002291F86430834207D1022801D0BC
:102B30008A667047886E401C886670478A6681F88E
:102B40006400012800D0022000220321FFF70AB907
:102B5000BD490DC8283181E80D007047BA492831B8
:102B60000EC980E80E007047B7490DC8343181E8BE
:102B70000D007047B44934310EC980E80E0070472B
:102B800070B5B14C0546E1686068FFF7EBF90646A1
:102B90002168A068FFF7E6F9301A2860D4E902013D
:102BA000FFF7E0F90646D4E90010FFF7DBF93044FF
:102BB0006860E0680146FFF7D5F9064620680146DF
:102BC000FFF7D0F93044A0F18040A860002070BD2C
:102BD0009D4910B510311EC980E81E00002010BDAF
:102BE00070B5994D044695F87C0080070AD02A46B6
:102BF00002F1100101F13000FFF7F3F8E86F20F067
:102C00000300E86795E80F0084E80F00002070BD1E
:102C10007FB504466846FFF7E3FF0546009800F0DD
:102C20000AF984ED000A019800F005F984ED010A23
:102C3000029800F000F984ED020A039800F0FBF816
:102C400084ED030A04B0284670BD70B515460C46E5
:102C5000FFF7C6FFFEF777FA2860FEF760FA10B1BB
:102C6000FEF730FE04E0FEF761FA18B1FEF727FE2A
:102C7000206070BDFEF760FA0028F9D0FEF72CFE48
:102C8000F6E77149C1F880000020704710B50722AF
:102C90004FF44871AFF21500FEF7C2FC002010BDE2
:102CA00010B5882168480DF086F967484FF08041DB
:102CB00041638163C163016401619FED640A016046
:102CC00080ED210A002010BD10B5FFF7E9FF0028B4
:102CD00005D1AFF24700BDE8104002F0F5BD10BDD0
:102CE0005948406D70475849486570475648006FCD
:102CF000704755490867704753498867704752487D
:102D0000806F704750490DC8583181E80D007047F9
:102D10004D4958310EC980E80E0070473EB5040099
:102D200017D000221146FEF76DFD6846FFF728FF19
:102D300020680099A0EBA130206060680199A0EBA9
:102D4000A1306060A0680299A0EBA130A0600020D3
:102D50003EBD05203EBD10B528B100221146FEF74C
:102D600051FD002010BD052010BD3EB5040003D06C
:102D70006846FFF7F0FF08B105203EBD9FED340A1D
:102D800000216A4652F8210000EE900A04EB81000F
:102D9000491CF8EEE00AC9B2032960EE800AC0EDD2
:102DA000000AEFD300203EBD3EB504001AD0002239
:102DB00011466846FEF737FD9FED250A00216A4659
:102DC00052F8210000EE900A04EB8100491CF8EE55
:102DD000E00AC9B2032960EE800AC0ED000AEFD311
:102DE00000203EBD05203EBD174880ED210A7047FA
:102DF000154890ED210A70473EB5040003D068469F
:102E0000FFF78CFF08B105203EBD9FED110A0021A0
:102E10006A4652F8210000EE900A04EB8100491C3A
:102E2000F8EEE00AC9B2032960EE800AC0ED000A9C
:102E3000EFD300203EBD00EE100ADFED060AB8EE2B
:102E4000C00A20EE200A7047A4060020DB0F49408C
:102E50000000803700008030F8B5FE4C0023224689
:102E600094F82460D2E900125D1E56B190B10220A0
:102E70000DE01078497C6B46012206F015FA60B926
:102E80000DE0A67A4EB128B1607C58B901208DF8CA
:102E90000000EEE78DF80030EBE72846F8BD9DF81E
:102EA000000060740020F8BD38B50024E94D18E03A
:102EB0002868427BA24212D0007EA0420FD0087840
:102EC0006B460122214606F017FA10B14FF0FF3091
:102ED00038BD9DF800202146DFA00DF08FFC641C5A
:102EE000E4B269680879A042E2D8002038BDD94A26
:102EF00030B40B4611684FF0FF344D7B854206D04D
:102F0000097E814203D051680A79824202D8204664
:102F100030BC70470C780146204630BC012206F0D8
:102F2000EBB938B5CB4D044695F82300A04201D14A
:102F3000002038BD0CB1302000E000208DF80000EA
:102F4000A87C28B19DF8000040F002008DF8000038
:102F500095F8220028B19DF8000040F080008DF81F
:102F6000000028686B460122C17D6868007806F081
:102F70009BF910B14FF0FF3038BD85F82340D7E7FB
:102F8000F8B5044610F0700F4FF0000601D0012094
:102F900004E014B18DF8006002E040208DF80000DC
:102FA000AC4D6B4601222868417D6868007806F0C8
:102FB0007BF94FF0FF3760BB9DF8000020F0400028
:102FC00028738DF80060600602D404208DF800009C
:102FD000A00605D49DF8000040F002008DF8000026
:102FE000E00605D49DF8000040F001008DF80000D7
:102FF000200705D49DF8000040F038008DF800004F
:1030000028686B460122817D6868007806F04CF9DB
:1030100010B1AE723846F8BD24B1082C02D00020A1
:10302000FFF77FFFAC722E75322006F023FD0020E3
:10303000F8BDF8B5874D0446A87CA04201D1002018
:10304000F8BD84484FF0FF366B46D0E900104FF0D2
:1030500001020979007834B306F04EF9D8BB9DF827
:1030600000006B4620F020008DF800002868012247
:1030700001796868007806F017F960BB032006F054
:10308000F9FC02208DF8000095F8220070B3822030
:103090002AE028686B460122C17D6868007806F046
:1030A00003F9C0B92DE006F027F9A0B9A87AC00746
:1030B0009DF8000002D040F0200001E020F0200048
:1030C0008DF8000028686B46012201796868007855
:1030D00006F0EAF808B13046F8BD032006F0CAFC55
:1030E00095F8220000B180208DF8000095F82300AB
:1030F0000028CED09DF8000040F030008DF8000090
:10310000C7E7AC749BE7F8B5524D4FF0FF36A87A8D
:1031100000287CD000248DF8004028686B460122EE
:10312000417C6868007806F0BFF800286FD12868F5
:103130006B46012241796868007806F0B5F80028EE
:1031400065D128686B46012201796868007806F02D
:10315000ABF800285BD195F82400E0B30C208DF883
:10316000000028686B46012201796868007806F043
:103170009BF800287DD1322006F07CFCC0208DF821
:103180000000A87AC00702D0E0208DF8000028686F
:103190006B46012201796868007806F085F80028FE
:1031A00067D1687C18B102208DF8000001E08DF82D
:1031B000004028686B460122417C6868007806F070
:1031C00073F820BB8DF8004028686B4601224179D6
:1031D000686800783DE0FFE704208DF8000028686B
:1031E0006B46012201796868007806F05DF870B9D5
:1031F000A87C88B9A87AC0070ED060208DF800009E
:1032000028686B46012201796868007800E02BE0AD
:1032100006F04AF840BB01E04020EFE7322006F01C
:1032200029FC687C18B101208DF8000001E08DF8C0
:10323000004028686B460122417C6868007806F0EF
:1032400033F888B92868034B417968681033012244
:1032500000780AE008000020252335783A2025234D
:1032600035780D0A0000000003E006F01DF8002884
:1032700000D03046F8BD2DE9F041FE4D20F00104AC
:10328000002695F8240010B10020BDE8F081A87A4E
:103290004FF0FF3838B120402F7C2874A04200D076
:1032A000464624B901E04046EFE7287D40B10120C1
:1032B000FFF7D2FD3CB1FFF726FF20B12F74F2E7F4
:1032C0000020FFF7C9FD3046DFE738B5E94C4FF085
:1032D000FF35A17A31B3BC2801D3012010E0622868
:1032E00001D302200CE02A2801D3032008E014288F
:1032F00001D3042004E00A2801D3052000E00620C1
:103300008DF80000E07A9DF80010884201D100207D
:1033100038BD20686B46012281786068007805F02E
:10332000C3FF08B1284638BD9DF80000E072EEE703
:103330002DE9F84304464FF0FF38282845D80727E1
:10334000CC4D002654B10120FFF7EBFD012C17D026
:10335000022C17D0052C17D804201CE00020FFF702
:10336000E0FD8DF800608DF8017028686B46022240
:10337000417D6868007805F097FF30BB2E752FE01F
:10338000022008E0032006E00A2C01D8052002E014
:10339000142C03D806208DF8000001E08DF8007091
:1033A00028686B460122417A6868007805F07CFF46
:1033B00058B920208DF8000028686B460122417D15
:1033C0006868007805F070FF10B14046BDE8F883EA
:1033D0000820A8722E73012028750020FFF74BFFEC
:1033E0000020F3E7F8B5A34D04464FF0FF37A87A65
:1033F00028B395F8240010BB287D48B12CB1282CA7
:1034000003D82046FFF794FF24E00020FFF790FF49
:103410004FF47A76042C01D2042402E0B44200D99D
:103420003446B6FBF4F0401E8DF8000028686B4669
:10343000012241786868007805F036FF08B1384607
:10344000F8BD9DF80000401CB6FBF0F0E881400894
:10345000FFF73BFF0020F8BD38B5864C4FF0FF3535
:10346000A17A19B3022806D0042806D008280ED065
:1034700010281BD10DE0002000E008208DF800008E
:10348000607A9DF80010B0EBD10F04D005E0102059
:10349000F4E71820F2E7002038BD20686B460122CF
:1034A000C1796068007805F0FFFE08B1284638BD94
:1034B0009DF80000C0086072EDE738B56D4C4FF024
:1034C000FF35A17A31B3FA2809D0B0F5FA7F08D0D8
:1034D000B0F57A7F0FD0B0F5FA6F1BD10DE0002068
:1034E00000E008208DF80000207A9DF80010B0EB75
:1034F000D10F04D005E01020F4E71820F2E70020F7
:1035000038BD20686B46012281796068007805F03B
:10351000CBFE08B1284638BD9DF80000C0082072D7
:10352000EDE77CB5534C80208DF8000020686B4699
:103530000122417D6068007805F0B6FE4FF0FF364D
:1035400000284CD1642006F095FA00258DF8005033
:1035500020686B460122417D6068007805F0A4FE7A
:10356000E8BBE57448208DF8000020686B46012216
:10357000017A6068007805F097FE80BBFF2004F8B0
:103580000A0F310C04F8020C04F8010C6070A180E1
:10359000A07120720120A07020766576E572A57278
:1035A000E56025616561A576E576A5834FF4FA604F
:1035B000FFF783FF98B90220FFF74EFF78B92A2062
:1035C000FFF783FE58B93220FFF70CFF38B900200F
:1035D000FFF751FE18B90020FFF72BFD08B1304668
:1035E0007CBD0020FFF7CCFC00207CBD70477CB583
:1035F000044620484FF0FF35817A11F0700F08D053
:10360000016840686B46897B0078062205F074FEED
:1036100008B128467CBDBDF8000040BA2080BDF846
:10362000020040BA6080BDF8040040BAA0800020CB
:103630007CBD7CB504460F484FF0FF35817A090701
:1036400008D5016840686B46C97B0078062205F002
:1036500053FE08B128467CBDBDF8000040BA20806A
:10366000BDF8020040BA6080BDF8040040BAA080F6
:1036700000207CBD08000020F8B5F94D04464FF04D
:10368000FF36A87A40B128686B460222017C686840
:10369000007805F031FE08B13046F8BDBDF80000F5
:1036A00040BA01B26868B0F90820C08800EE102A5C
:1036B000F8EEC00A00EE101AB8EEC00A70EE600A0A
:1036C00000EE100AB8EE401A80EE810ADFEDE50A3E
:1036D00030EE200ADFEDE40A002020EE200ABDEEE5
:1036E000C00A84ED000AF8BD2DE9FC41DC4D04461A
:1036F0006B46686802227721007805F0FDFD4FF0E7
:10370000FF3780B968686E46022200787A21B31CC0
:1037100005F0F2FD38B96868331D022200787D217A
:1037200005F0EAFD10B13846BDE8FC81BDF80000A7
:1037300040BA2060BDF8020040BA6060BDF80400E5
:1037400040BAA0600020EFE72DE9FC41C44D0446DB
:103750006B46686802220621007805F0CDFD4FF027
:10376000FF3780B968686E46022200780821B31CD2
:1037700005F0C2FD38B96868331D022200780A21BD
:1037800005F0BAFD08B13846CEE7BDF8000040BAF2
:103790002060BDF8020040BA6060BDF8040040BA85
:1037A000A0600020C0E72DE9FC41AD4D04466B460A
:1037B000686802221321007805F09EFD4FF0FF3764
:1037C00080B968686E46022200781521B31C05F0A6
:1037D00093FD38B96868331D02220078172105F07F
:1037E0008BFD08B138469FE7BDF8000040BA206065
:1037F000BDF8020040BA6060BDF8040040BAA060A5
:10380000002091E77CB500210091019150F8212022
:10381000524240F82120491C0329F7DB0188904ED1
:10382000090A8DF8001001788DF8011081886B4627
:10383000090A8DF8021001798DF80310018902221E
:10384000090A8DF80410007A8DF8050070681321BC
:10385000007805F029FD4FF0FF3588B970686C4697
:10386000022200781521A31C05F01EFD40B97068E6
:10387000231D02220078172105F016FD002800D034
:103880002846F6E670B586B0002104460091019105
:103890000291039102A80491FFF756FF4FF0FF3504
:1038A000F0BB2168029821F00101401A0290616882
:1038B000039821F00101401A0390A168049821F0B7
:1038C0000101401A04900298654E000A8DF800002C
:1038D00002988DF8010003986B46000A8DF80200EB
:1038E00003988DF8030004980222000A8DF8040062
:1038F00004988DF8050070680621007805F0D4FC66
:1039000070B970686C46022200780821A31C05F08B
:10391000CBFC28B97068231D022200780A2100E040
:1039200003E005F0C1FC002800D0284606B070BDB9
:1039300070B586B000210446009101910291039177
:1039400002A80491FFF7D0FE4FF0FF35F0BB2168CD
:10395000029821F00101401A02906168039821F059
:103960000101401A0390A168049821F00101401A56
:10397000049002983A4E000A8DF8000002988DF8E3
:10398000010003986B46000A8DF8020003988DF839
:10399000030004980222000A8DF8040004988DF8B0
:1039A000050070687721007805F07EFC70B97068BA
:1039B0006C46022200787A21A31C05F075FC28B918
:1039C0007068231D022200787D2100E003E005F0ED
:1039D0006BFC0028AAD02846A8E72149097A39B10A
:1039E000012907D002290AD003290BD0002103E0C6
:1039F000FA2101E04FF4FA710180002070474FF482
:103A00007A71F9E74FF4FA61F6E7154A517A41B154
:103A1000012908D002290FD003290FD04FF0FF3021
:103A20007047022100E004210170D17C11B10178BE
:103A300049000170002070470821F5E71021F3E7E5
:103A40000749C97A072919D2DFE801F018040610DE
:103A500012141600BC2100E0622101800020704792
:103A60000800002000000C42000080472A21F4E7F3
:103A70001421F2E70A21F0E70521EEE70021ECE747
:103A8000FD4991F8242012B14FF0FF30E7E7C989D2
:103A900001800020E3E700210180481EDFE74FF0AE
:103AA000FF30DCE7F449097A41B1012909D0022944
:103AB0000DD003290ED04FF0FF30D0E79FEDEF0A75
:103AC00001E09FEDEF0A80ED000A0020C7E79FEDBF
:103AD000ED0AF8E79FEDEC0AF5E7E74A517A41B1C4
:103AE000012909D0022911D0032912D04FF0FF304B
:103AF000B5E74FF4804101E04FF400510180D17CE3
:103B000011B10188490801800020A8E74FF48051D5
:103B1000F4E74FF40061F1E7D749097C0170002018
:103B20009DE7D549897A01B101210170002096E70E
:103B300038B50546D0484FF0FF34817A41B101686D
:103B400040686B46897C0078022205F0D5FB08B1FD
:103B5000204638BDBDF8000040BA2880002038BD9E
:103B60002DE9FE4F8846C4498146002491F824007F
:103B70001E4625464FF0FF3BD0BB00203070887AB0
:103B8000B0B3087CA0B3420600D50224820600D55B
:103B9000A41CC20600D5A41C000700D5A41D8A469B
:103BA0000968DAF804006B46097B0078022205F008
:103BB000A3FBE8B9BDF8000047BAA74277D3DAF80B
:103BC00004004188B7EB510F13D9DAF800100078E0
:103BD0006B46C97C012205F08FFB48B99DF80000B7
:103BE000C00606D5FFF78FFA6FF00100BDE8FE8F23
:103BF0000AE0DAF80010DAF804006B46497B007836
:103C0000224605F079FB08B15846EFE7B7FBF4F020
:103C10000C99401E087000203070ECB39AF8101018
:103C200050460A07694613D5BDF80020062552BA4A
:103C3000A8F80020BDF8022052BAA8F80220BDF86A
:103C4000042052BAA8F80420327842F008023270F8
:103C5000A5420CD0027C520609D54A19AD1C128827
:103C600052BAA9F80020327842F040023270A542E0
:103C70000CD0027C920609D54A19AD1C128852BAA2
:103C8000A9F80220327842F020023270A5420ED00C
:103C90009AF81000C00600E009E008D5481900882D
:103CA00040BAA9F80400307840F0100030700020CD
:103CB0009CE72DE9F843704E0546174696F8240018
:103CC00089464FF0FF3890B3B07A80B330686B46C6
:103CD0000222017B7068007805F00EFB38BBBDF84E
:103CE000000044BAAC4202D2002038701FE0706875
:103CF0004188B4EB510F11D9316800786B46C97C0B
:103D0000012205F0F9FA90B99DF80000C00605D52A
:103D1000FFF7F9F96FF00100BDE8F8833068EAB207
:103D20004B46417B7068007805F0E6FA08B14046E2
:103D3000F2E7B4FBF5F0401E38700020ECE74E4986
:103D400081F8220000208AE62DE9FE4F0546012079
:103D5000494F8DF800004FF000088DF80180386859
:103D60000C461646417D78686B460222007805F0C5
:103D70009BFA4FF0FF3B00287CD1C82005F07AFE6B
:103D80008DF8008038686B460122417C78680078A5
:103D900005F08AFA0028EFD138686B460122417994
:103DA0007868007805F080FA0028E5D138686B461D
:103DB0000122417D7868007805F076FA0028DBD191
:103DC00038686B460122817E7868007805F06CFACD
:103DD0000028D1D138686B460122017978680078D3
:103DE00005F062FA0028C7D14FF00C0A8DF800A048
:103DF00038686B46012201797868007805F054FA3A
:103E0000002837D10F2005F035FEB86A6B46012235
:103E1000407A8DF80000386881787868007805F07D
:103E200043FA002826D1B86A6B460122007A8DF841
:103E30000000386841787868007805F035FA002885
:103E400018D1B86A807A0EB140F0E0008DF8000019
:103E500038686B46012281797868007805F024FA89
:103E6000002874D196B1B86AC07A40F0E0008DF8AD
:103E700000000DE053E000000800002000000343B4
:103E80000000834233330342333383418DF8008093
:103E900038686B460122C1797868007805F004FA29
:103EA000E8BB16B1C82005F0E5FD40208DF8000004
:103EB00038686B46012201797868007805F0F4F9DA
:103EC00068BB78208DF8000038686B460122417984
:103ED0007868007805F0E8F908BBC82005F0CAFD4D
:103EE0008DF800803868C1466B46417978680122B8
:103EF000007805F0D9F990B939687868B846097B37
:103F000000786B46022205F0F7F940B9BDF80000D1
:103F1000C5F8089040BAB0FBFAF0C6B200E016E06F
:103F2000C5F80490C5F80090C4F80890C4F804904F
:103F30000027C4F8009038E0D8F80010D8F8040042
:103F40006B46497B00780C2205F0D6F908B158463B
:103F50004CE6BDF80000236840BA02B2BDF802008A
:103F60001A4440BA01B2BDF804002260626840BA47
:103F700011446160A16800B20844A060BDF8060069
:103F80002B6840BA02B2BDF808001A4440BA01B228
:103F9000BDF80A002A606A6840BA11446960A968DD
:103FA00000B208447F1CFFB2A860B742C4D328689F
:103FB0008322C117090441EA1041000400230BF0D9
:103FC00081FF324600230BF07DFF28606868832262
:103FD000C117090441EA1041000400230BF072FFED
:103FE000324600230BF06EFF6860A8688322C11779
:103FF000090441EA1041000400230BF063FF32463C
:1040000000230BF05FFFA86020684FF48045C117C4
:10401000090441EA104100042A4600230BF052FF34
:10402000324600230BF04EFF206060682A46C1171D
:10403000090441EA1041000400230BF043FF32461B
:1040400000230BF03FFF6060A0682A46C1170904F7
:1040500041EA1041000400230BF034FF32460023F4
:104060000BF030FFA060002802DDA0F5803001E0F9
:1040700000F58030A0600020B8E52DE9F74F8146BB
:10408000FF4814462DED048B90B00026406835465D
:1040900007AB007803220D2105F02EF940B114B1D1
:1040A000F8A00CF0ABFB072010B0BDEC048B9DE535
:1040B00044B19DF81E309DF81D209DF81C10F9A0FC
:1040C0000CF09CFBFD4B002007AADFEDFD0A9FEDE5
:1040D000FD1ADFEDFD1A04AF115CA1B103EB410144
:1040E00031F8021C00EE101A07EB8001B8EE400A0E
:1040F00081ED000A20EE200A81ED000A20EE010A7F
:1041000081ED000A04E007EB80010125C1ED001AF2
:10411000401C0328E0DB002D66D09FEDEC9ADFED1C
:10412000EC8A84B1EBA00CF069FB9FEDEF0BF0A0E3
:1041300053EC102B0CF062FB9FEDF10BF2A053EC53
:10414000102B0CF05BFB0025159850F8251059F842
:1041500025008A46091A00EE101A08A901EB85010C
:10416000B8EEC08A0E9181ED008A14B300EE100AF9
:10417000B8EEC00A10EE100A0CF04EF900EE10AACC
:1041800007468846B8EEC00A10EE100A0CF044F953
:1041900082468B4618EE100A0CF03EF941EC100BEB
:1041A000CDE9027853EC102BDBA0CDE900AB0CF08D
:1041B00025FB0E9890ED000AB4EEC90AF1EE10FA54
:1041C00004D3B4EEE80AF1EE10FA07DD1CB129467B
:1041D000DBA00CF013FB0120A84006436D1C032D4F
:1041E000B2DB002E7FD0ABE014B1E0A00CF006FBF8
:1041F0000025B7EE008A159859F825A050F825003B
:10420000A0EB0A0100EE101A08A901EB8501F8EEF7
:10421000C08A0E91C1ED008A74B300EE100AB8EEA8
:10422000C00A10EE100A0CF0F7F800EE10AA0746CC
:104230008846B8EEC00A10EE100A0CF0EDF882467F
:104240008B4618EE900A0CF0E7F841EC100BCDE924
:10425000027853EC102BCAA0CDE900AB0CF0CEFADB
:1042600004A850F825000CF0D7F841EC100BD1A0B1
:1042700053EC102B0CF0C2FA0E98D0ED000A04A8F3
:1042800000EB850090ED001A0BA800EB850780EE8F
:10429000810A30EE480A87ED000A74B110EE100A68
:1042A0000CF0BAF841EC100B9FEDC71B53EC102B30
:1042B0008DED001BC6A00CF0A1FA97ED000AB0EE40
:1042C000C00A10EE100AB0F17C5F07DD1CB1294670
:1042D000C7A00CF093FA0120A84006436D1C032DE3
:1042E00089DB7EE7FFE79FEDC89A34B19FEDC70BEE
:1042F000C8A053EC102B0CF081FA002519EE100A1F
:104300000CF08AF841EC180B59F825000CF027F84E
:1043100041EC100B0DF0F0FA53EC182B51EC100B94
:104320000CF0A6F809D22CB159F825202946C3A0D3
:104330000CF064FA0120A84006436D1C032DDDDB60
:104340003046B1E62DE9F74F81464D4800262DED68
:10435000048B90B014464068354607AB00780322C2
:10436000314604F0C9FF28B114B146A00CF046FA5A
:10437000072099E644B19DF81E309DF81D209DF858
:104380001C10B8A00CF03AFA4C4B002007AADFED45
:104390004C0A9FEDBA1ADFED4C1A04AF115CA1B1C3
:1043A00003EB410131F8021C00EE101A07EB80010B
:1043B000B8EE400A81ED000A20EE200A81ED000AE5
:1043C00080EE012A81ED002A04E007EB800101253F
:1043D000C1ED001A401C0328E0DB002D4DD0DFEDBD
:1043E000A88A4CB1A7A00CF009FA9FEDAB0BACA0CA
:1043F00053EC102B0CF002FA0025159850F82510FC
:1044000059F825008A46091A00EE101A08A901EB8E
:104410008501B8EEC08A0E9181ED008A14B300EEDA
:10442000100AB8EEC00A10EE100A0BF0F5FF00EE0D
:1044300010AA07468846B8EEC00A10EE100A0BF024
:10444000EBFF82468B4618EE100A0BF0E5FF41ECBD
:10445000100BCDE9027853EC102B2FA0CDE900AB67
:104460000CF0CCF90E9890ED000AB4EEE80AF1EEEB
:1044700010FA04D214B129461CE128E11DE11FE124
:104480000800002052656164696E67204F54502017
:104490005265676973746572204572726F722E0A75
:1044A00000000000416363656C204F54503A25645E
:1044B0002C2025642C2025640A000000782C01089B
:1044C00000008047000080380000000066666646F5
:1044D000CDCC2C47414343454C3A43524954455275
:1044E000494120420D0A0000000000C0CCCCCC4065
:1044F0004D696E204D473A2025372E34660D0A004F
:10450000000000A09999E5404D6178204D473A2080
:1045100025372E34660D0A00426961735F7368693E
:1045200066743D25372E34662C2073743D25372E56
:1045300034662C207265673D25372E34660A0000EC
:10454000416363656C204641494C20617869733A48
:104550002564203C3D203232356D67206F72203E4D
:104560003D203637356D670A000000004143434562
:104570004C3A435249544552494120410A000000F7
:10458000426961735F53686966743D25372E3466EE
:104590002C20426961735F5265673D25372E346672
:1045A0002C20426961735F485753543D25372E34A0
:1045B000660D0A004F54502076616C75653A2025CF
:1045C000372E34660D0A0000000000000000E03FB6
:1045D000726174696F3D25372E34662C20746872C1
:1045E0006573686F6C643D25372E34660D0A0000D4
:1045F000414343454C204661696C204178697320F2
:104600003D2025640A000000000000470000000073
:104610000000E040416363656C3A4352495445529F
:10462000494120433A2062696173206C65737320AD
:104630007468616E2025372E34660A004641494C65
:1046400045443A20416363656C20617869733A257B
:1046500064203D20256C64203E203530306D670A93
:10466000000000004779726F204F54503A25642CA7
:104670002025642C2025640D0A000000000003435F
:104680000000704A4759524F3A43524954455249E3
:104690004120420D0A0000000000000000004E41D1
:1046A0004D6178204450533A2025372E34660D0A48
:1046B00000000000FBA00CF0A1F80120A840064378
:1046C0006D1C032DFFF699AE002E7ED0AAE014B12A
:1046D000FEA00CF093F80025159859F825A050F885
:1046E0002510A1EB0A0000EE100A08A800EB8500D7
:1046F000B8EEC08A0E9080ED008A84B300EE101AE6
:10470000B8EEC00A10EE100A0BF086FE00EE10AAFA
:1047100007468846B8EEC00A10EE100A0BF07CFE81
:1047200082468B4618EE100A0BF076FE41EC100B19
:1047300053EC102BAFF2B810CDE90278CDE900AB05
:104740000CF05CF804A850F825000BF065FE41EC75
:10475000100B53EC102BAFF2A4100CF04FF80E9886
:10476000D0ED000A04A800EB850090ED001A0BA81C
:1047700000EB850780EE810A87ED000A7CB110EE20
:10478000100A0BF049FE41EC100B1FED711B53ECAE
:10479000102B8DED001BAFF2C8100CF02FF897ED29
:1047A000000AB0EEC00A10EE100AB0F17C5F07DA22
:1047B0001CB12946CAA00CF021F80120A8400643EC
:1047C0006D1C032D88DB7FE7FFE79FEDCB9A34B1AB
:1047D0009FEDCA0BCBA053EC102B0CF00FF800256B
:1047E00019EE100A0BF018FE41EC180B59F82500D1
:1047F0000BF0B5FD41EC100B0DF07EF853EC182BCF
:1048000051EC100B0BF034FE09D22CB159F82520D5
:104810002946C6A00BF0F2FF0120A84006436D1CFC
:10482000032DDDDB30463FE42DE9FF4F05462DED3E
:10483000048BADF5057D0120C54F00268DF81000D5
:104840008DF8116038680C469A46417D7868B0460C
:1048500004AB0078022204F027FD00287ED1C82096
:1048600005F008F98DF81080386804AB0122417C0E
:104870007868007804F018FD0028EFD1386804ABA0
:10488000012241797868007804F00EFD0028E5D116
:10489000386804AB0122417D7868007804F004FD9B
:1048A0000028DBD1386804AB0122817E786800786B
:1048B00004F0FAFC0028D1D1386804AB0122017958
:1048C0007868007804F0F0FC0028C7D10C208DF83F
:1048D0001000386804AB012201797868007804F090
:1048E000E3FC0028BAD10F2005F0C4F8B86A04AB85
:1048F0000122407A8DF81000386881787868007855
:1049000004F0D2FC0028A9D1B86A04AB0122007AD5
:104910008DF81000386841787868007804F0C4FC9D
:1049200000289BD18B980028B86A807A01D040F08B
:10493000E0008DF81000386804AB012281797868B6
:10494000007804F0B1FC002888D18B9838B1B86A9F
:10495000C07A40F0E0008DF8100002E09AE08DF897
:104960001080386804AB0122C1797868007804F0BF
:104970009BFC00288BD1C82005F07CF840208DF8E6
:104980001000386804AB012201797868007804F0DF
:104990008BFC00287ED178208DF81000386804AB9D
:1049A000012241797868007804F07EFC002871D1FA
:1049B000A86068602860A06060602060BAF1000FA5
:1049C00002D064A00BF01AFFBB460A2005F052F893
:1049D000DBF80010DBF80400D846097B007804AB54
:1049E000022204F089FC002854D1BDF810000C21EB
:1049F00040BAB0FBF1F0C7B2C6F1C800B84200DA65
:104A0000C7B207EB47008006020ED8F80010D8F8AE
:104A1000040004AB497B007804F06EFCD0BB00219D
:104A2000084633E004AA0A44D4F80080B2F802C071
:104A300013889CFA9CFC5BBA0FFA8CF91BB2B2F893
:104A400004C04344236063689CFA9CFC4B4463604D
:104A5000A3680FFA8CFC6344A360D388D5F8008068
:104A60005BBA0FFA83FC13895289C444C5F800C0AD
:104A70005BBAD5F804C01BB263446B6052BAAB6832
:104A800012B2401C1A44C0B20C31AA60B842C9D359
:104A90003E4400E07EE0C82E97DBBAF1000F6BD0F9
:104AA000314666E04759524F204641494C206178D3
:104AB00069733A2564206772656174657220746851
:104AC000616E2036306470730A0000004759524FFF
:104AD0003A435249544552494120410A00000000DE
:104AE0004779726F204661696C2041786973203D77
:104AF0002025640A000000000000A049000000001A
:104B0000000034414779726F3A4352495445524943
:104B10004120433A2062696173206C65737320748D
:104B200068616E2025372E34660A00004641494CE4
:104B300045443A204779726F20617869733A256459
:104B4000203D20256C64203E2032306470730A00C2
:104B5000080000205374617274696E6720426961B5
:104B600073204C6F6F702052656164730A000000FF
:104B700002E0FEA00BF042FE00208DF81000DBF8F2
:104B80000010DBF8040004AB49790078012204F03E
:104B90008BFB40B14FF0FF300DF5057DBDEC048B74
:104BA00004B0BDE8F08F28688322C117090441EAE8
:104BB0001041000400230BF085F9F71732463B46FD
:104BC0000BF080F9286068688322C117090441EA64
:104BD0001041000400230BF075F932463B460BF000
:104BE00071F96860A8688322C117090441EA10417D
:104BF000000400230BF066F932463B460BF062F9E5
:104C0000A86020684FF48048C117090441EA1041A8
:104C10000004424600230BF055F932463B460BF0A8
:104C200051F909EE100A206060684246C117090474
:104C300041EA1041000400230BF044F932463B46A0
:104C40000BF040F908EE900A6060A0684246C11778
:104C5000090441EA1041000400230BF033F9324605
:104C60003B460BF02FF9A060002802DDA0F5803054
:104C700001E000F58030A060BAF1000F55D094ED4E
:104C8000020AB8EEC00A9FEDBD8A20EE080A10EEB7
:104C9000100A0BF0C1FBB8EEE80A8046894620EE08
:104CA000080A10EE100A0BF0B7FBB8EEC90A064668
:104CB0000F4620EE080A10EE100A0BF0ADFB8DE84F
:104CC000C00341EC100BAEA053EC102B8B990BF0F2
:104CD00095FD95ED020AB8EEC00A20EE080A10EE26
:104CE000100A0BF099FB95ED010A80468946B8EE53
:104CF000C00A20EE080A10EE100A0BF08DFB95EDAD
:104D0000000A06460F46B8EEC00A20EE080A10EE6A
:104D1000100A0BF081FB8DE8C00341EC100BA5A03D
:104D200053EC102B8B990BF069FD002034E738B55C
:104D3000AD4C94F8241081421DD0002500B394F8A6
:104D40002500D0B10020FEF787F80020FEF771F9AA
:104D5000E08CFEF747FB8DF8005060686B4601223F
:104D60000078232104F0A0FA012084F82400FEF743
:104D700073F8FEF7C8F9002038BD4FF0FF3038BD9A
:104D80000020FEF769F8207C8DF8000060686B4613
:104D900001220078232104F087FA84F82450E8E700
:104DA0002DE9F04F8BB014000F46834602D08FA040
:104DB0000BF024FD8C4D95F8240020B10020FFF766
:104DC000B6FF012600E0002607A8FEF706FE06A8AB
:104DD000FEF71BFE09A8FEF733FE08A8FEF750FEFB
:104DE00095F80AA095F81090A84614B186A00BF08B
:104DF00005FD00252346002239465846FFF714FDDD
:104E000010B16D1C022DF5DB022D29D014B183A049
:104E10000BF0F4FC00252346012203A96846FFF7A6
:104E200003FD10B16D1C022DF5DB022D1BD02246B7
:104E300003A93846FFF721F9C7B21CB139467DA056
:104E40000BF0DCFC224669465846FFF77BFAC5B2F8
:104E50001CB129467FA00BF0D1FC00204DB109E028
:104E60002CB183A001E014B18DA00BF0C7FC00258C
:104E700005E001200FB940F0020040F0040514B134
:104E800094A00BF0BBFCFF2088F8080088F809000C
:104E900088F80B004FF6FF72A8F80E2088F80A0079
:104EA00088F81000012088F80C00BDF81C00FEF7FF
:104EB00004FB9DF81800FEF7CFFABDF82400FEF7BA
:104EC00004FABDF82000FEF78DFA5046FEF758F8B8
:104ED0004846FEF7D0F916B10120FFF728FF284613
:104EE0000BB05EE62DE9FF473F4C8146884694F8BB
:104EF000240020B10020FFF71AFF012500E0002563
:104F000001A8FEF76AFD6846FEF77FFD03A8FEF7DD
:104F100097FD02A8FEF7B4FDA77A267C0022414641
:104F20004846FEF711FFFF2020726072E0724FF6D4
:104F3000FF71E181A0722074012020734FF00708F7
:104F4000BDF80400FEF7B9FA9DF80000FEF784FAF8
:104F5000BDF80C00FEF7B9F9BDF80800FEF742FAFB
:104F60003846FEF70DF83046BCE0000053616D7026
:104F70006C65733A2025640A000000000000803749
:104F8000416363656C206F66667365742064617449
:104F9000612048575354206269743D25643A2025A6
:104FA000372E34662025372E34662025372E34667A
:104FB0000D0A00004779726F206F66667365742072
:104FC000646174612048575354206269743D2564BC
:104FD0003A2025372E34662025372E346620253793
:104FE0002E34660D0A000000080000205374617220
:104FF00074696E67204D5055363530302048575310
:1050000054210D0A000000005265747269657669CA
:105010006E67204269617365730D0A005265747290
:10502000696576696E6720535420426961736573C0
:105030000A000000416363656C2053656C66205470
:1050400065737420526573756C74733A2025640A15
:10505000000000004779726F2053656C662054652C
:10506000737420526573756C74733A2025640A005A
:1050700052657472696576696E672042696173650D
:1050800073204572726F72202D20706F7373696286
:105090006C6520493243206572726F720A0000000D
:1050A00052657472696576696E672053542042694F
:1050B00061736573204572726F72202D20706F735B
:1050C0007369626C6520493243206572726F720A9F
:1050D0000000000045786974696E67204857535492
:1050E0000A000000FEF7C7F815B10120FFF71FFE08
:1050F00004B04046BDE8F087F8B517000D464FF004
:10510000FF341FD0F94EB17AE1B1010A8DF80010D9
:10511000C0B28DF80100411970684289914211D8DE
:10512000316800786B46C97E022204F0BDF848B9A8
:105130003068EAB23B46017E7068007804F0B4F84B
:10514000002800D02046F8BDF8B517000D464FF0F6
:10515000FF341FD0E54EB17AE1B1010A8DF800109D
:10516000C0B28DF80100411970684289914211D88E
:10517000316800786B46C97E022204F095F848B980
:105180003068EAB23B46017E7068007804F0B4F8FB
:10519000002800D02046F8BD2DE9FF4FDFF84CA3D2
:1051A000054685B09AF82500914688464FF0FF3BAA
:1051B000B8BBB8F1000F34D000241EE0281B102823
:1051C00000DD102086B208EB04073A46314620463F
:1051D000FFF792FF28BB6A4631462046FFF7B4FF2F
:1051E000F8B93846324669460AF0F7FE18B16FF052
:1051F000010009B0D5E4A01984B2AC42DED34FEA75
:1052000019208DF810008DF81190DAF8000054463E
:1052100004AB417FDAF804000222007804F044F87D
:1052200008B15846E5E7012084F825000898E08495
:105230000020DEE7AD4991F824100170002070478E
:105240004FF0FF3070474FF0FF3070472DE9F843C3
:10525000A64C1600024604F116034FF0FF309946A3
:105260004FF001084FF000056FD0B2F57F7F01D9F4
:10527000FF2705E0042A01D2012701E0C2F38707D6
:10528000B6F5207F7DD8607DF0B994F8240028B170
:105290000020FFF74CFD84F8208001E084F82050C6
:1052A0004846FEF79AFB91481830FEF7AEFB8F4850
:1052B0001A30FEF7C5FB8D481C30FEF7E1FBA07AE3
:1052C000A0778A48217CC1770020FDF7C5FD8DF8C5
:1052D00000508DF801504FF007098DF802902068BA
:1052E0006B46032201796068007803F0DDFF002837
:1052F0006BD18DF8007020686B460122817A60685E
:10530000007803F0D1FFE8BB012E05D0022E05D0B6
:10531000052E05D804201FE002201DE003201BE01D
:105320000A2E01D8052017E0142E01D8062013E01C
:10533000282E02D88DF8009010E0502E01D80820B9
:105340000AE0A02E02D8092006E03AE0B6F5A07FD8
:1053500001D80A2000E00B208DF8000020686B4681
:105360000122417A6068007803F09EFF50B9C020A6
:105370008DF8000020686B460122017D606800788E
:1053800001E054E021E003F08FFFF0B920208DF818
:10539000000020686B460122417D6068007803F0C0
:1053A00083FF90B940208DF8000020686B460122F1
:1053B000417C6068007803F077FF30B984F815808D
:1053C00034E01A460021535C9BB34746FF264FF654
:1053D000FF7826726672E672A4F80E80A6722674B2
:1053E0002773A07FFDF7CCFDE08AFEF766F8207EEC
:1053F000FEF732F8608BFDF768FFA08BFDF7F2FF38
:10540000E07FFDF738FF94F8200010B10120FFF78E
:105410008EFC8DF8005020686B460122017D60688B
:10542000007803F041FF0028D3D165750020BDE866
:10543000F883FFE7491C0C29C5D3F8E700B589B00C
:10544000002202A905A8FFF7ABFC072802D0012023
:1054500009B000BD6846FEF725FB9DED050A05A8CD
:10546000F8EEC00A9DED000A60EE800AFDEEE00A4B
:10547000CDED050ADDED060AF8EEE00A60EE800AE1
:10548000FDEEE00ACDED060ADDED070AF8EEE00AD2
:1054900020EE800ABDEEC00A8DED070A00F089FB00
:1054A00001A8FEF71AFBBDF80400029941430291DE
:1054B0000399414303910499414302A8049100F0E8
:1054C000DAFB0020C4E790F90010002902DD4FF05C
:1054D0000000704702DA4FF00400704790F90110A5
:1054E000002905DD4FF00100704700000800002092
:1054F00002DA4FF00500F7E790F90200002802DD1C
:105500004FF00200F0E702DA4FF00600ECE74FF050
:105510000700E9E71FB503A8FEF703F8002870D1DC
:10552000FBF758FB10F0FF0F10D10AF033FC09F025
:105530002FFA08F0BBFE09F070FC09F055FFFCF7EC
:10554000E5FBFBF77BFB10F0FF0F02D0012004B05E
:1055500010BD7820FDF714FD10F0FF0F01D00220E0
:10556000F5E77820FDF787FE10F0FF0F01D003204C
:10557000EDE7C820FDF736FF10F0FF0F01D0042043
:10558000E5E76846FEF77CFA02A8FEF726FA01A8CE
:10559000FEF73BFABDF80000AE4CB4FBF0F0FBF7B1
:1055A00061FDBDF80000B4FBF0F0FBF76BFDAA480D
:1055B000FDF738F9BDF80810C903FBF74EFDA64802
:1055C000FDF730F99DF80410C903FBF7DEFD00F08C
:1055D0006DFA10F0FF0F01D00620B8E79E48FDF7E6
:1055E00021F900F06BFA10F0FF0F01D00720AEE7B1
:1055F00040F2731000F0C7FD10F0FF0F02D008203A
:10560000A5E71BE0C82000F09DFB10F0FF0F01D0C4
:1056100009209CE7FFF712FF08B10A2097E7012055
:10562000FFF785FB10F0FF0F01D00B208FE703F091
:10563000D9FE8A48016841F002010160002086E736
:1056400070B50D462DED0C8B8EB006460CA906A844
:105650001446F7EE00BACDE900010BAB02AA09A986
:1056600007A800F09DFE20B101200EB0BDEC0C8B10
:1056700070BDBDF81800C0057ED59DED020AF8EE9C
:10568000C00A9FED770AB0EE00CA60EE809ADDEDA9
:10569000030AF8EEE00A69EE8CCA60EE808ADDED5E
:1056A000040AF8EEE00A20EE808ADDED050AF8EE45
:1056B000E00A20EE809AB8EE000A28EE80BA2BEEBF
:1056C000090A0CEE880A10EE100A0AF0A5FE41EC59
:1056D000100B0BF02DFB9FED63AB51EC100B53EC5B
:1056E0001A2B0AF037FD0AF0DBFE2BEE280A28EE13
:1056F0000CDA30600DEE480A30EE2B0A10EE100A7C
:105700000AF08AFE2DEE090A41EC1B0B0CEEA80AEA
:1057100010EE100A0AF080FE41EC100BB0EE4B1AAE
:10572000F0EE6B1A0BF020FE53EC1A2B51EC100B21
:105730000AF010FD0AF0B4FE29EEA90A286008EE6E
:10574000A80A08EE480A09EE490A10EE100A0AF003
:1057500063FE28EE880A41EC1B0B09EE890A20EE55
:105760000C0A10EE100A0AF057FE41EC100BB0EED6
:105770004B1AF0EE6B1A00E00CE00BF0F5FD53EC69
:105780001A2B51EC100B0AF0E5FC0AF089FE2060A0
:1057900000206AE7022068E700B59DB01AA911A8A9
:1057A000CDE900010BAB14AA0FA912A800F0F8FD77
:1057B00010B101201DB000BDBDF8440010F0700F05
:1057C0000BD012A80B99FBF771FE0BA918A8FDF7D7
:1057D00053FF0B991898FBF7ECFEBDF84400000747
:1057E0000DD5BDF93C000C90BDF93E000D90BDF902
:1057F00040000E9000210CA80B9AFBF727FEFBF748
:10580000C7FF19AA1BA902A8FCF74EF9174890ED8B
:10581000060A80ED070A9DED020AF8EEC00A9FED28
:10582000140A60EE800AC0ED050ADDED030AF8EE09
:10583000E00A60EE800AC0ED040ADDED040AB8EE6D
:10584000E01ADFED0C0A41EE000AC0ED060A002066
:10585000B0E7000040420F0034000020141802405E
:10586000000080306666666666A64C4058090020D7
:10587000000080370000344310B5542122480AF05C
:105880009AFB002010BD10B51F4C0021226817E0C4
:1058900004EB81035B68834211D1501E884209D01A
:1058A000501A820004EB810000F10801001D121F54
:1058B0000AF05AFB2068401E2060002010BD491CE1
:1058C0008A42E5DC052010BD0F4A1168142901DB6E
:1058D0000520704702EB810148601068401C106091
:1058E0000020704770B500252C46074E07E006EBF8
:1058F00084004068804708B105B90546641C3068DB
:10590000A042F4DC284670BD2C07002010B54FF4EF
:10591000CC7165480AF04FFB63490C20486010BD0C
:10592000F0B5614D00242E6808E004EB440705EB58
:105930008707D7F8B0709F4204D0641CA642F4DCFD
:10594000142E01DB0520F0BD06EB460405EB8404B4
:10595000C4F8B0302B6803EB430305EB8303C3F8B3
:10596000A8202B680C3205EB83039860286805EBB0
:10597000800081656868104468602868401C286061
:105980000020F0BD484949680160002070472DE9BA
:10599000F0410C294AD382680646A2F5E643F13B62
:1059A00044D1356806F10C000C3D04462946FCF74D
:1059B00007FF7168DFF8F080814237D131E00026BF
:1059C0004046A268D8F8001008E006EB460300EB5A
:1059D0008303D3F8B030934204D0761CB142F4DC98
:1059E0004FF0FF360C3D04F10C07002E15DB21684B
:1059F000A94212DC06EB460208EB8200D0F8A800B0
:105A000081420AD13846FCF7DBFE616881420DD144
:105A100008EB860081683846884720682D1A02D432
:105A2000C4190C2DCBDC0020BDE8F0816B20FBE716
:105A30002DE9F04781461C4842688A4232D809F174
:105A40000C07BA460024804617E006EB84003D466A
:105A50000C37816D3846884704EB440006EB80061E
:105A6000384656F8A81FFCF7ABFE6860306828601F
:105A7000B068A8603068641C0744D8F80000464647
:105A8000A042E2DC71684C46354650460C39FCF7C2
:105A900097FE606047F2F130A060686820600020E7
:105AA000BDE8F0876B20FBE780070020C8234FF498
:105AB0008062FE4940F6F630FFF76EBB2DE9FF41EC
:105AC0000446FBA002AB00680290FAA000680390B5
:105AD000F9A00668F9A0056804F00300195C8DF8C8
